:0300000002006596
:03000600020003F2
:030003000200599F
:20000900753E41E53D60051200F480F7853E3D745AB53E067E417F008009AD3E0DEDFE333B
:2000290095E0FF8E3E1200F480D9758920758DFA759850D28EE53D70051200F480F7853D6B
:20004900992099051200F480F8C299753D0080E5753D0090000912009302003302006C229B
:030069002222222E
:20006C00753800753700753600753500900059120093858234E5342430F98781D0D0D0839C
:20008C00D082D0F0D0E022753A0074FC253A401BE53A2435F9E7700CE53A2435F876018557
:2000AC003A398007E53A04F53A80DF7404B53A047582FF2285813BE53AC454F0FF243FF547
:2000CC0081C082C0837400C0E0C0E0C0E0C0E0E53AFFC40354F8F53CC03CE5392430F8A6AC
:2000EC0081853B8185398222C0E0C0F0C082C083C0D0E5342430F8A6817403B534067E00FB
:20010C007F008009AD340DEDFE3395E0FF8E34E5342430F98781D0D0D083D082D0F0D0E066
:20012C0022E5342435F876007403B534067E007F008009AD340DEDFE3395E0FF8E34E5346A
:1A014C002435F98707BF01E0E5342430F98781D0D0D083D082D0F0D0E022D4
:00000001FF
