:10000000020065020059020003753E41E53D6005AE
:1000100012011480F7853E3D745AB53E067E417F3D
:10002000008009AD3E0DEDFE3395E0FF8E3E1201DE
:100030001480D9758920758DFA759850D28EE53D5A
:10004000700512011480F7853D992099051201145D
:1000500080F8C299753D0080E5753D009000091259
:10006000008A02003302006C2222222275350090A1
:10007000005912008A858234E5342430F98781D012
:10008000D0D083D082D0F0D0E022740FB535047583
:1000900082FF2275370074FC25374044AF378FF05C
:1000A00005F07F017E008006EF2FFFEE33FED5F0D6
:1000B000F7AC357D00EC5207ED5206E507450670BA
:1000C0001AAF378FF005F07401800225E0D5F0FB00
:1000D000FFAE354EF5358537368007E53704F53701
:1000E00080B6858138E537C454F0FF243FF581C0E0
:1000F00082C0837400C0E0C0E0C0E0C0E0E537FF2C
:10010000C40354F8F539C039E5362430F8A68185A2
:10011000388185368222C0E0C0F0C082C083C0D062
:10012000E5342430F8A6817403B534067E007F00E0
:100130008009AD340DEDFE3395E0FF8E34AF348F82
:10014000F005F07F017E008006EF2FFFEE33FED535
:10015000F0F7AC357D00EC5207ED5206EF4E60C76C
:10016000E5342430F98781D0D0D083D082D0F0D04C
:10017000E022AF348FF005F07401800225E0D5F065
:10018000FBF4FFAE355EF5357403B534067E007FB3
:10019000008009AD340DEDFE3395E0FF8E34AF34B1
:1001A0008FF005F07F017E008006EF2FFFEE33FE1B
:1001B000D5F0F7AC357D00EC5207ED5206EF4E60FE
:1001C000C7E5342430F98781D0D0D083D082D0F0F5
:0301D000D0E0225A
:00000001FF