:0300000002006596
:03000600020003F2
:030003000200599F
:20000900753F41E53E600512012080F7853F3E745AB53F067E417F008009AD3F0DEDFE3308
:2000290095E0FF8E3F12012080D9758920758DFA759850D28EE53E700512012080F7853E0E
:2000490099753E0020990512012080F8C29980E5753E0090000912009602003302006C2269
:030069002222222E
:20006C00753500753A01753B02753C04753D08900059120096858234E5342430F98781D0EF
:20008C00D0D083D082D0F0D0E022740FB535047582FF2275370074FC25374044AF378FF063
:2000AC0005F07F017E008006EF2FFFEE33FED5F0F7AC357D00EC5207ED5206EF4E701AAF65
:2000CC00378FF005F07401800225E0D5F0FBFFAE354EF5358537368007E53704F53780B658
:2000EC00858138E537C454F0FF243FF581C082C0837400C0E0C0E0C0E0C0E0E537FFC4035F
:20010C0054F8F539C039E5362430F8A68185388185368222C0E0C0F0C082C083C0D0E534B7
:20012C002430F8A6817403B534067E007F008009AD340DEDFE3395E0FF8E34E534243AF9A2
:20014C00E7FF553560DFE5342430F98781D0D0D083D082D0F0D0E022AF348FF005F07401D3
:20016C00800225E0D5F0FBF4FFAE355EF5357403B534067E007F008009AD340DEDFE339541
:20018C00E0FF8E34AF348FF005F07F017E008006EF2FFFEE33FED5F0F7AC357D00EC52073C
:1901AC00ED5206EF4E60C7E5342430F98781D0D0D083D082D0F0D0E0224C
:00000001FF
