:0400000002007D324B
:03000B000200846C
:0300110002000EDC
:03000E0002006687
:20001400753F41E53E70FC7F0110AF027F00853F3EEF1392AF745AB53F067E417F008009B4
:20003400AD3F0DEDFE3395E0FF8E3F80D6438920758DFA759850D28EE53E60FC7F0110AF9B
:20005400027F00853E99753E00EF1392AF1099E880FB7F0110AF027F00753E00EF1392AFF7
:140074009000141200BA0200410200882222222202020A3273
:2000880075890075A882D28C753500753A01753B02753C04753D089000661200BA858234E5
:2000A800E5342430F98781D0D0D083D082D0F0D0E022740FB535047582FF227F0110AF0229
:2000C8007F0075370074FC25374044AE378EF005F07E017D008006EE2EFEED33FDD5F0F7D0
:2000E800AB357C00EB5206EC5205EE4D701AAE378EF005F07401800225E0D5F0FBFEAD355D
:200108004DF5358537368007E53704F53780B6858138E537C454F0FE243FF581C082C083A7
:200128007400C0E0C0E0C0E0C0E0E537FEC40354F8F539C039E5362430F8A681853881EFB4
:200148001392AF853682227F0110AF027F00C0E0C0F0C082C083C0D0E5342430F8A68174BF
:2001680003B534067D007E008009AC340CECFD3395E0FE8D34E534243AF9E7FE553560DFA7
:20018800E5342430F98781D0D0D083D082D0F0D0E0EF1392AF227F0110AF027F00AE348E9F
:2001A800F005F07401800225E0D5F0FBF4FEAD355DF5357403B534067D007E008009AC3471
:2001C8000CECFD3395E0FE8D34AE348EF005F07E017D008006EE2EFEED33FDD5F0F7AB3511
:2001E8007C00EB5206EC5205EE4D60C7E5342430F98781D0D0D083D082D0F0D0E0EF1392DC
:20020800AF22C0E0C0F0C082C083C0D0E5342430F8A68189E08AF08B828C838DD08E388F63
:20022800397403B534067E007F008009AD340DEDFE3395E0FF8E34E534243AF9E7FF55356F
:2002480060DFA9E0AAF0AB82AC83ADD0AE38AF39E5342430F98781D0D0D083D082D0F0D04A
:03026800E032225F
:00000001FF
