:03000000020058A3
:03000600020003F2
:03000300020049AF
:20000900752F01E52F600512011C80F7052EE52E24A55003752E41752F0180E7758920752E
:200029008DFA759850D28EE52F700512011C80F7C299852E99752F002099EC12011C80F8AD
:16004900752F00752E4190000912008402002502005F22222222DA
:20005F00752900752A00900049120084752800E528242488F0F88681A8F0D0D0D083D0828F
:20007F00D0F0D0E022C3E5296480948440047582FF22752300C3E52364809484503FE523B0
:20009F008523F005F07E017F008006EE2EFEEF33FFD5F0F7AC2AE52A3395E0FDEC5206ED7E
:2000BF005207EE4F70138523F005F07401800225E0D5F0FBFF422A8004052380B8052974CE
:2000DF00042523C454F0FF14F52C85812B852C81C082C083758200C082C082C082C082E5AD
:2000FF0023C40354F8F52DC02DE5232424FF8F2DE8A82DA681F8852B8185238222C0E0C0D8
:20011F00F0C082C083C0D07424252888F0F8A681A8F00528C3E52864808529F063F08095C0
:20013F00F04003752800E5288528F005F07E017F008006EE2EFEEF33FFD5F0F7AC2AE52AD1
:20015F003395E0FDEC5206ED5207EE4F60C4E528242488F0F88681A8F0D0D0D083D082D077
:20017F00F0D0E022E5288528F005F07E017F008006EE2EFEEF33FFD5F0F7AC2AE52A3395D7
:20019F00E0FDEC5206ED5207EE4F60118528F005F07401800225E0D5F0FBFF622A752800B5
:1801BF001529E528242488F0F88681A8F0D0D0D083D082D0F0D0E022AF
:00000001FF
