:0400000002014E3279
:03000B000201559A
:0300110002000EDC
:03000E0002011CD0
:20001400752841E52260FC20E7F915227F0110AF027F00E52060FC20E7F91520E5262423AC
:20003400F8A6287402B526067D007E008009AC260CECFD3395E0FE8D260520EF1392AF057E
:2000540021745AB528067E417F008009AD280DEDFE3395E0FF8E2812022080A7752930E5BB
:200074002260FC20E7F915227F0110AF027F00E52060FC20E7F91520E5262423F8A62974D4
:2000940002B526067D007E008009AC260CECFD3395E0FE8D260520EF1392AF05217439B5D5
:2000B40029067E307F008009AD290DEDFE3395E0FF8E2912022080A7438920758DFA7598CB
:2000D40050D28EE52160FC20E7F915217F0110AF027F00E52060FC20E7F91520E52724231B
:2000F400F9879910990280FB7402B527067D007E008009AC270CECFD3395E0FE8D2705208A
:20011400EF1392AF052280BB7F0110AF027F007525007524007523007526007527007520CF
:2001340001752100752203EF1392AF90001412018B90007012018B0200CC020159222222C7
:05015400220202DB3273
:2001590075890075A882D28C753500753A01753B02753C04753D0890011C12018B8582348A
:20017900E5342430F98781D0D0D083D082D0F0D0E022740FB535047582FF227F0110AF0257
:200199007F0075370074FC25374044AE378EF005F07E017D008006EE2EFEED33FDD5F0F7FE
:2001B900AB357C00EB5206EC5205EE4D701AAE378EF005F07401800225E0D5F0FBFEAD358B
:2001D9004DF5358537368007E53704F53780B6858138E537C454F0FE243FF581C082C083D6
:2001F9007400C0E0C0E0C0E0C0E0E537FEC40354F8F539C039E5362430F8A681853881EFE3
:200219001392AF853682227F0110AF027F00C0E0C0F0C082C083C0D0E5342430F8A68174ED
:2002390003B534067D007E008009AC340CECFD3395E0FE8D34E534243AF9E7FE553560DFD5
:20025900E5342430F98781D0D0D083D082D0F0D0E0EF1392AF227F0110AF027F00AE348ECD
:20027900F005F07401800225E0D5F0FBF4FEAD355DF5357403B534067D007E008009AC349F
:200299000CECFD3395E0FE8D34AE348EF005F07E017D008006EE2EFEED33FDD5F0F7AB353F
:2002B9007C00EB5206EC5205EE4D60C7E5342430F98781D0D0D083D082D0F0D0E0EF13920A
:2002D900AF22C0E0C0F0C082C083C0D0E5342430F8A68189E08AF08B828C838DD08E388F92
:2002F900397403B534067E007F008009AD340DEDFE3395E0FF8E34E534243AF9E7FF55359E
:2003190060DFA9E0AAF0AB82AC83ADD0AE38AF39E5342430F98781D0D0D083D082D0F0D078
:03033900E032228D
:00000001FF
