:040000000203C53200
:03000B000203CC21
:0300110002000EDC
:03000E0002034D9D
:20001400E52160FC20E7F91521C2AFE52260FC20E7F915227458B52308752331755A308035
:2000340006752431755A31853F250522D2AF7582071205D4C2AFE52260FC20E7F9152274E3
:2000540031B523057523588003752458853F4A0522D2AF05210204F1E52160FC20E7F915D0
:2000740021C2AFE52260FC20E7F915227458B52308752332755B308006752432755B3185F3
:200094003F260522D2AF7582061205D4C2AFE52260FC20E7F915227432B523057523588059
:2000B40003752458853F4B0522D2AF05210204F1E52160FC20E7F91521C2AFE52260FC20D8
:2000D400E7F915227458B52308752333755C308006752433755C31853F270522D2AF75829F
:2000F400051205D4C2AFE52260FC20E7F915227433B523057523588003752458853F4C05F4
:2001140022D2AF05210204F1E52160FC20E7F91521C2AFE52260FC20E7F915227458B523C4
:2001340008752334755D308006752434755D31853F280522D2AF7582071205D4C2AFE5228A
:2001540060FC20E7F915227434B523057523588003752458853F4D0522D2AF05210204F139
:20017400E52160FC20E7F91521C2AFE52260FC20E7F915227458B52308752335755E3080CC
:2001940006752435755E31853F290522D2AF7582031205D4C2AFE52260FC20E7F91522747A
:2001B40035B523057523588003752458853F4E0522D2AF05210204F1438920758DFA7598E9
:2001D40050D28EC2AF7F00BF0500400302034A7E00BE050050118E82758307E493F599104F
:2001F400990280FB0E80EA8F0674312EF59910990280FB7E00BE0B00500FEE90071093F57E
:200214009910990280FB0E80ECEF245AF9879910990280FB7E00BE1000500FEE9007209302
:20023400F59910990280FB0E80ECEF2425F9E724F65026EF2425F987067D0075080A8D097C
:200254008E828D83C00712069CAD82AE83D00774302DF59910990280FBEF2425F987067DF8
:200274000075080A8D098E828D83C007120666AD82D00774302DF59910990280FB75990A45
:2002940010990280FB7E00BE050050118E82758307E493F59910990280FB0E80EA8F0674C7
:2002B400312EF59910990280FB7E00BE0700500FEE90073093F59910990280FB0E80EC7E81
:2002D40000BE1000500FEE90072093F59910990280FB0E80ECEF244AF9E724F65026EF2497
:2002F4004AF987067D0075080A8D098E828D83C00712069CAD82AE83D00774302DF599103F
:20031400990280FBEF244AF987067D0075080A8D098E828D83C007120666AD82AE83D0079A
:2003340074302DF59910990280FB75990A10990280FB0F0201DBD2AF22C2AF75245875235C
:2003540058752102752201D2AF9000141204147582021205D4740FB5350280F390006C12DE
:2003740004147582021205D4740FB5350280F39000C41204147582021205D4740FB53502BA
:2003940080F390011C1204147582021205D4740FB5350280F39001741204147582021205FA
:1C03B400D47458B523F57458B524F01201CC0204F10203D02222222202055D3262
:050700004361722000BE
:0B07100020676F742073706F7420006E
:170720002061742074696D6520756E69743A20002065786974730077
:2003D000753E00753F0075890075A882D28C753500753A01753B02753C04753D08752F008C
:2003F000752E00752D00752C0090034D120414858234E5342430F98781D0D0D083D082D03F
:20041000F0D0E022740FB535047582FF22C2AF75370074FC25374044AF378FF005F07F013A
:200430007E008006EF2FFFEE33FED5F0F7AC357D00EC5207ED5206EF4E701AAF378FF00597
:20045000F07401800225E0D5F0FBFFAE354EF5358537368007E53704F53780B6858138E568
:2004700037C454F0FF243FF581C082C0837400C0E0C0E0C0E0C0E0E537FFC40354F8F53980
:20049000C039E5362430F8A681853881D2AF853682227F0110AF027F00C0E0C0F0C082C095
:2004B00083C0D0E5342430F8A6817403B534067D007E008009AC340CECFD3395E0FE8D3467
:2004D000E534243AF9E7FE553560DFE5342430F98781D0D0D083D082D0F0D0E0EF1392AF88
:2004F00022C2AF7400C0E0C0E0C0E0C0E0C0E0C0E0C0E0C0E0E5342430F87600AF348FF0A8
:2005100005F07401800225E0D5F0FBF4FFAE355EF535E535700280FE7403B534067E007F4F
:20053000008009AD340DEDFE3395E0FF8E34E534243AF9E7FF553560DFE5342430F9878153
:20055000D0D0D083D082D0F0D0E0D2AF22C2AFC0E0C0F0C082C083C0D0E5342430F8A681D1
:2005700089E08AF08B828C838D378E388F397403B534067E007F008009AD340DEDFE33958D
:20059000E0FF8E34E534243AF9E7FF553560DFE53E04F53E7404B53E08753E00E53F04F5EE
:2005B0003FA9E0AAF0AB82AC83AD37AE38AF39E5342430F98781D0D0D083D082D0F0D0E098
:2005D000D2AF3222AF82E534242CF9EF253FF7E534242CF9E7B53FF7E534242CF87600222C
:2005F000E508450960467A01E50825E0F508E509334012F509E5829508E583950940030AD8
:2006100080E6C3E50913F509E50813F508C3E5829508F5F0E58395094005F58385F082C37C
:0D063000E50913F509E50813F508DAE122E4
:20063D007A10E4FBFCE58225E0F582E58333F583EB33FBEC33FCEB9508F5F0EC95094006D1
:09065D00FCABF0438201DADD225E
:20066600C2D5E58330E70DD2D5E4C39582F582E49583F583E50930E70BE4C39508F508E4CC
:160686009509F5091205F030D50BE4C39582F582E49583F58322E0
:20069C00C2D5E58330E70DD2D5E4C39582F582E49583F583E50930E70DB2D5E4C39508F5F9
:1806BC0008E49509F50912063D30D50BE4C39582F582E49583F583226E
:00000001FF
