:04000000020328329D
:03000B0002032FBE
:0300110002000EDC
:03000E000202A348
:20009300E52360FC20E7F915237F0110AF027F00E52460FC20E7F915247458B5250575250E
:2000B3003180037526310524EF1392AF75820712053F7F0110AF027F00E52460FC20E7F9C8
:2000D30015247431B5250575255880037526580524EF1392AF052302045BE52360FC20E788
:2000F300F915237F0110AF027F00E52460FC20E7F915247458B52505752532800375263297
:200113000524EF1392AF75820612053F7F0110AF027F00E52460FC20E7F915247432B5252F
:200133000575255880037526580524EF1392AF052302045BE52360FC20E7F915237F01101E
:20015300AF027F00E52460FC20E7F915247458B5250575253380037526330524EF1392AF89
:2001730075820512053F7F0110AF027F00E52460FC20E7F915247433B525057525588003C1
:200193007526580524EF1392AF052302045BE52360FC20E7F915237F0110AF027F00E524FF
:2001B30060FC20E7F915247458B5250575253480037526340524EF1392AF75820712053F0C
:2001D3007F0110AF027F00E52460FC20E7F915247434B5250575255880037526580524EFA7
:2001F3001392AF052302045BE52360FC20E7F915237F0110AF027F00E52460FC20E7F91539
:20021300247458B5250575253580037526350524EF1392AF75820312053F7F0110AF027F5E
:2002330000E52460FC20E7F915247435B5250575255880037526580524EF1392AF05230287
:20025300045B438920758DFA759850D28E7F0110AF027F00E52060FC20E7F91520E527B570
:2002730026028024E5272429F9879910990280FB7406B527067D007E008009AC270CECFD5F
:200293003395E0FE8D2780D50520EF1392AF80BD7F0110AF027F007526007527007526580D
:2002B300752558752001752100752210752302752401EF1392AF9000931203777582021235
:2002D300053F740FB5350280F39000ED12037775820212053F740FB5350280F390014712C1
:2002F300037775820212053F740FB5350280F39001A112037775820212053F740FB53502C4
:2003130080F31201FB75820212053F740FB5350280F302045B020333222222220204C832F7
:0F0070004341523A405B2C5D0A00000000000043
:20033300753E00753F0075890075A882D28C753500753A01753B02753C04753D08752F0029
:20035300752E00752D00752C009002A3120377858234E5342430F98781D0D0D083D082D025
:20037300F0D0E022740FB535047582FF227F0110AF027F0075370074FC25374044AE378EF0
:20039300F005F07E017D008006EE2EFEED33FDD5F0F7AB357C00EB5206EC5205EE4D701A49
:2003B300AE378EF005F07401800225E0D5F0FBFEAD354DF5358537368007E53704F537807A
:2003D300B6858138E537C454F0FE243FF581C082C0837400C0E0C0E0C0E0C0E0E537FEC4C4
:2003F3000354F8F539C039E5362430F8A681853881EF1392AF853682227F0110AF027F0046
:20041300C0E0C0F0C082C083C0D0E5342430F8A6817403B534067D007E008009AC340CEC16
:20043300FD3395E0FE8D34E534243AF9E7FE553560DFE5342430F98781D0D0D083D082D0A4
:20045300F0D0E0EF1392AF227F0110AF027F007400C0E0C0E0C0E0C0E0C0E0C0E0C0E0C030
:20047300E0E5342430F87600AE348EF005F07401800225E0D5F0FBF4FEAD355DF5357403CB
:20049300B534067D007E008009AC340CECFD3395E0FE8D34E534243AF9E7FE553560DFE597
:2004B300342430F98781D0D0D083D082D0F0D0E0EF1392AF22C2AFC0E0C0F0C082C083C080
:2004D300D0E5342430F8A68189E08AF08B828C838D378E388F397403B534067E007F008079
:2004F30009AD340DEDFE3395E0FF8E34E534243AF9E7FF553560DFE53E04F53E7404B53EBA
:2005130008753E00E53F04F53FA9E0AAF0AB82AC83AD37AE38AF39E5342430F98781D0D072
:20053300D083D082D0F0D0E0D2AF3222AF82E534242CF9EF253FF7E534242CF9E7FFB53FA5
:0F055300028004D2AF80F0E534242CF876002229
:00000001FF
