:040000000202DB32EB
:03000B000202E20C
:0300110002000EDC
:03000E0002025D8E
:20009300E52360FC20E7F91523C2AFE52460FC20E7F915247458B52505752531800375260E
:2000B300310524D2AF7582071204E4C2AFE52460FC20E7F915247431B52505752558800352
:2000D3007526580524D2AF0523020407E52360FC20E7F91523C2AFE52460FC20E7F9152490
:2000F3007458B5250575253280037526320524D2AF7582061204E4C2AFE52460FC20E7F9AF
:2001130015247432B5250575255880037526580524D2AF0523020407E52360FC20E7F9154E
:2001330023C2AFE52460FC20E7F915247458B5250575253380037526330524D2AF7582050B
:200153001204E4C2AFE52460FC20E7F915247433B5250575255880037526580524D2AF05E6
:2001730023020407E52360FC20E7F91523C2AFE52460FC20E7F915247458B5250575253418
:2001930080037526340524D2AF7582071204E4C2AFE52460FC20E7F915247434B52505754D
:2001B300255880037526580524D2AF0523020407E52360FC20E7F91523C2AFE52460FC20C8
:2001D300E7F915247458B5250575253580037526350524D2AF7582031204E4C2AFE52460AE
:2001F300FC20E7F915247435B5250575255880037526580524D2AF05230204074389207587
:200213008DFA759850D28E7F0110AF027F00E52060FC20E7F91520E527B526028024E52798
:200233002429F9879910990280FB7406B527067D007E008009AC270CECFD3395E0FE8D271D
:2002530080D50520EF1392AF80BDC2AF752600752700752658752558752001752100752241
:2002730010752302752401D2AF90009312032A7582021204E4740FB5350280F39000DF12EE
:20029300032A7582021204E4740FB5350280F390012B12032A7582021204E4740FB53502EC
:2002B30080F390017712032A7582021204E4740FB5350280F31201C37582021204E4740F50
:1302D300B5350280F30204070202E62222222202046D3295
:0F0070004341523A405B2C5D0A00000000000043
:2002E600753E00753F0075890075A882D28C753500753A01753B02753C04753D08752F0077
:20030600752E00752D00752C0090025D12032A858234E5342430F98781D0D0D083D082D005
:20032600F0D0E022740FB535047582FF22C2AF75370074FC25374044AF378FF005F07F0125
:200346007E008006EF2FFFEE33FED5F0F7AC357D00EC5207ED5206EF4E701AAF378FF00582
:20036600F07401800225E0D5F0FBFFAE354EF5358537368007E53704F53780B6858138E553
:2003860037C454F0FF243FF581C082C0837400C0E0C0E0C0E0C0E0E537FFC40354F8F5396B
:2003A600C039E5362430F8A681853881D2AF853682227F0110AF027F00C0E0C0F0C082C080
:2003C60083C0D0E5342430F8A6817403B534067D007E008009AC340CECFD3395E0FE8D3452
:2003E600E534243AF9E7FE553560DFE5342430F98781D0D0D083D082D0F0D0E0EF1392AF73
:2004060022C2AF7400C0E0C0E0C0E0C0E0C0E0C0E0C0E0C0E0E5342430F87600AF348FF092
:2004260005F07401800225E0D5F0FBF4FFAE355EF5357403B534067E007F008009AD340DCD
:20044600EDFE3395E0FF8E34E534243AF9E7FF553560DFE5342430F98781D0D0D083D08270
:20046600D0F0D0E0D2AF22C2AFC0E0C0F0C082C083C0D0E5342430F8A68189E08AF08B8211
:200486008C838D378E388F397403B534067E007F008009AD340DEDFE3395E0FF8E34E534AE
:2004A600243AF9E7FF553560DFE53E04F53E7404B53E08753E00E53F04F53FA9E0AAF0AB86
:2004C60082AC83AD37AE38AF39E5342430F98781D0D0D083D082D0F0D0E0D2AF3222AF828A
:1A04E600E534242CF9EF253FF7E534242CF9E7B53FF7E534242CF876002223
:00000001FF
